:100000000C9461000C947E000C947E000C947E0095
:100010000C947E000C947E000C947E000C947E0068
:100020000C947E000C947E000C947E000C947E0058
:100030000C947E000C947E000C947E000C947E0048
:100040000C9460010C947E000C947E000C947E0055
:100050000C947E000C947E000C947E000C947E0028
:100060000C947E000C947E00000000002400270009
:100070002A0000000000250028002B0000000000DE
:1000800023002600290004040404040404040202DA
:100090000202020203030303030301020408102007
:1000A0004080010204081020010204081020000012
:1000B0000007000201000003040600000000000029
:1000C000000011241FBECFEFD8E0DEBFCDBF11E08E
:1000D000A0E0B1E0E2E2F6E002C005900D92AE30A1
:1000E000B107D9F711E0AEE0B1E001C01D92AD312A
:1000F000B107E1F70E9459010C940F030C94000022
:10010000CF93DF938091100190911101029730F409
:1001100080E190E090931101809310018091100193
:1001200090911101959587959093110180931001FD
:1001300083E090E090930F0180930E01C3E0D0E044
:100140001DC0FE01E81BF90BEE0FFF1FEC5FFE4F19
:10015000609110017091110102C0759567958A95A3
:10016000E2F7617080810E946C0280910E01909193
:100170000F01019790930F0180930E0180910E0162
:1001800090910F0197FFDDCF60910C0170910D01EF
:10019000882777FD8095982F0E94DC01DF91CF9111
:1001A00008958091100190911101029730F480E13F
:1001B00090E0909311018093100180911001909133
:1001C000110195958795909311018093100183E01B
:1001D00090E017C0FC01EE0FFF1FEC5FFE4F609137
:1001E00010017091110102C0759567958A95E2F72B
:1001F000617080810E946C0280910E0190910F01CC
:10020000019790930F0180930E0180910E019091C0
:100210000F0197FFDFCF60910C0170910D018827CE
:1002200077FD8095982F0E94DC010895809102014E
:100230000E94C002892B11F40E94D100809100011C
:100240000E94C002892B11F40E94800008958091C1
:10025000000160E00E9446028091020160E00E947D
:1002600046028091000161E00E946C0280910201CF
:1002700061E00E946C0210920F0110920E0111C0F9
:10028000EE0FFF1FEC5FFE4F808161E00E9446028F
:1002900080910E0190910F01019690930F01809330
:1002A0000E01E0910E01F0910F01E430F10544F3ED
:1002B00008950E940C020E9427010E941601FDCFA2
:1002C0001F920F920FB60F9211242F933F938F938B
:1002D0009F93AF93BF938091180190911901A091C2
:1002E0001A01B0911B0130911C010196A11DB11D95
:1002F000232F2D5F2D3720F02D570196A11DB11D05
:1003000020931C018093180190931901A0931A0166
:10031000B0931B018091140190911501A0911601D9
:10032000B09117010196A11DB11D80931401909306
:100330001501A0931601B0931701BF91AF919F9142
:100340008F913F912F910F900FBE0F901F90189596
:100350008FB7F894209118013091190140911A013A
:1003600050911B018FBFB901CA0108959FB7F8943E
:1003700020911401309115014091160150911701FF
:1003800086B5A89B06C08F3F21F02F5F3F4F4F4F90
:100390005F4F9FBF542F432F322F2227280F311D2D
:1003A000411D511D82E0220F331F441F551F8A95A6
:1003B000D1F7B901CA010895EF92FF920F931F93ED
:1003C000CF93DF937B018C010E94B601EB010EC03D
:1003D0000E94B6016C1B7D0B685E7340C8F30894E5
:1003E000E108F10801091109C851DC4FE114F104D9
:1003F0000105110569F7DF91CF911F910F91FF90D2
:10040000EF900895019739F0880F991F880F991F71
:1004100002970197F1F70895789484B5826084BDBE
:1004200084B5816084BD85B5826085BD85B58160F8
:1004300085BDEEE6F0E0808181608083E1E8F0E058
:10044000808182608083808181608083E0E8F0E049
:10045000808181608083E1EBF0E080818460808333
:10046000E0EBF0E0808181608083EAE7F0E080816A
:1004700084608083808182608083808181608083CA
:100480008081806880831092C1000895482F50E0D9
:10049000CA0186569F4FFC0124914A575F4FFA01CB
:1004A00084918823C1F0E82FF0E0EE0FFF1FE85998
:1004B000FF4FA591B491662341F49FB7F8948C91B6
:1004C000209582238C939FBF08959FB7F8948C91B9
:1004D000822B8C939FBF0895482F50E0CA0182550C
:1004E0009F4FFC012491CA0186569F4FFC01349115
:1004F0004A575F4FFA019491992309F440C022238F
:1005000031F1233021F4809180008F7705C02430B1
:1005100031F4809180008F7D8093800018C021305D
:1005200019F484B58F7704C0223021F484B58F7D0F
:1005300084BD0DC0263021F48091B0008F7705C0B6
:10054000273029F48091B0008F7D8093B000E92F8F
:10055000F0E0EE0FFF1FEE58FF4FA591B491662318
:1005600041F49FB7F8948C91309583238C939FBF6F
:1005700008959FB7F8948C91832B8C939FBF089517
:10058000682F70E0CB0182559F4FFC012491CB0175
:1005900086569F4FFC0144916A577F4FFB0194910F
:1005A000992319F420E030E038C0222331F12330C0
:1005B00021F4809180008F7705C0243031F4809140
:1005C00080008F7D8093800018C0213019F484B59D
:1005D0008F7704C0223021F484B58F7D84BD0DC097
:1005E000263021F48091B0008F7705C0273029F4A0
:1005F0008091B0008F7D8093B000892F90E0880FAC
:10060000991F84589F4FFC01A591B4918C9120E0D3
:1006100030E0842311F021E030E0C9010895F8941E
:02062000FFCF0A
:0E06220003000400080009000A000B00040099
:00000001FF
