:100000000C9463000C9458010C9485010C948B00A3
:100010000C948B000C948B000C948B000C94A40417
:100020000C948B000C948B000C948B000C948B0024
:100030000C948B000C948B000C948B000C948B0014
:100040000C94B2010C948B000C9460030C948B0004
:100050000C948B000C948B000C948B000C948B00F4
:100060000C948B000C948B000000000024002700EF
:100070002A0000000000250028002B0000000000DE
:1000800023002600290004040404040404040202DA
:100090000202020203030303030301020408102007
:1000A0004080010204081020010204081020000012
:1000B0000007000201000003040600000000000029
:1000C0000000EF00120411241FBECFEFD4E0DEBF0A
:1000D000CDBF11E0A0E0B1E0EEE7FAE002C005908C
:1000E0000D92A231B107D9F711E0A2E1B1E001C050
:1000F0001D92A53DB107E1F710E0C6ECD0E004C0C9
:100100002297FE010E943905C23CD107C9F70E941F
:1001100009050C943D050C940000FC01718360837B
:10012000538342833583248308950F931F938C0157
:1001300081E090E0F80191878087828160E00E94F1
:100140000C03F801848161E00E940C031F910F9160
:1001500008950F931F938C01FC01118610868281F4
:1001600061E00E940C03F801848160E00E940C03AE
:100170001F910F910895FC0182E090E097838683A0
:100180006285738580810E948D020895FC0117822B
:100190001682808160E070E00E948D0208950F93C6
:1001A0001F938C01FC01808161E00E94E602F8014E
:1001B000828161E00E94E602F801848161E00E9490
:1001C000E6028FEF90E0F80193878287C8010E94D2
:1001D000C600C8010E94A9001F910F91089582E1F5
:1001E00091E069E070E046E050E027E030E00E94F6
:1001F0008D008EE191E06AE070E04CE050E028E094
:1002000030E00E948D000895EF92FF920F931F93AC
:1002100082E1E82E81E0F82EC7010E94BB00C701F1
:100220000E94A9000EE111E0C8010E94BB00C801B4
:100230000E94950060E177E280E090E00E94FA0180
:10024000C7010E94C600C8010E94C60068EE73E0A4
:1002500080E090E00E94FA01C7010E94BB00C70144
:100260000E949500C8010E94BB00C8010E94A9001D
:1002700060E177E280E090E00E94FA01C7010E940D
:10028000C600C8010E94C60068EE73E080E090E0FE
:100290000E94FA011F910F91FF90EF90089582E163
:1002A00091E00E94CF008EE191E00E94CF0008957E
:1002B0001F920F920FB60F9211242F933F934F93DB
:1002C0005F936F937F938F939F93AF93BF93EF93BE
:1002D000FF9380912A0190912B01892B29F0E091C5
:1002E0002A01F0912B010995FF91EF91BF91AF91F8
:1002F0009F918F917F916F915F914F913F912F913E
:100300000F900FBE0F901F9018951F920F920FB66F
:100310000F9211242F933F934F935F936F937F938B
:100320008F939F93AF93BF93EF93FF9380912C0193
:1003300090912D01892B29F0E0912C01F0912D0154
:100340000995FF91EF91BF91AF919F918F917F910F
:100350006F915F914F913F912F910F900FBE0F9032
:100360001F9018951F920F920FB60F9211242F9382
:100370003F938F939F93AF93BF938091320190915E
:100380003301A0913401B0913501309136010196CD
:10039000A11DB11D232F2D5F2D3720F02D57019664
:1003A000A11DB11D2093360180933201909333013A
:1003B000A0933401B093350180912E0190912F01CB
:1003C000A0913001B09131010196A11DB11D809322
:1003D0002E0190932F01A0933001B0933101BF9172
:1003E000AF919F918F913F912F910F900FBE0F90E2
:1003F0001F9018959B01AC017FB7F89480912E0156
:1004000090912F01A0913001B091310166B5A89B68
:1004100005C06F3F19F00196A11DB11D7FBFBA2F16
:10042000A92F982F8827860F911DA11DB11D62E06D
:10043000880F991FAA1FBB1F6A95D1F7BC012DC059
:10044000FFB7F89480912E0190912F01A091300177
:10045000B0913101E6B5A89B05C0EF3F19F00196B8
:10046000A11DB11DFFBFBA2FA92F982F88278E0F6E
:10047000911DA11DB11DE2E0880F991FAA1FBB1F8E
:10048000EA95D1F7861B970B885E9340C8F22150FE
:1004900030404040504068517C4F211531054105A6
:1004A000510571F60895789484B5826084BD84B551
:1004B000816084BD85B5826085BD85B5816085BD5F
:1004C000EEE6F0E0808181608083E1E8F0E0808109
:1004D00082608083808181608083E0E8F0E08081B9
:1004E00081608083E1EBF0E0808184608083E0EBD9
:1004F000F0E0808181608083EAE7F0E080818460C1
:10050000808380818260808380818160808380811C
:10051000806880831092C10008951F93CF93DF936A
:10052000182FEB0161E00E94E602E12FF0E0E255B6
:10053000FF4F8491833051F48091800080688093D4
:100540008000D0938900C09388003CC0843051F46F
:1005500080918000806280938000D0938B00C09354
:100560008A0030C0813039F4209729F184B5806841
:1005700084BDC7BD27C0823039F42097E1F084B52F
:10058000806284BDC8BD1EC0863041F48091B00039
:1005900080688093B000C093B30014C0873041F4EA
:1005A0008091B00080628093B000C093B4000AC014
:1005B000C038D1051CF4812F60E002C0812F61E0BA
:1005C0000E940C03DF91CF911F910895482F50E0B6
:1005D000CA0186569F4FFC0124914A575F4FFA018A
:1005E00084918823C1F0E82FF0E0EE0FFF1FE85957
:1005F000FF4FA591B491662341F49FB7F8948C9175
:10060000209582238C939FBF08959FB7F8948C9177
:10061000822B8C939FBF0895482F50E0CA018255CA
:100620009F4FFC012491CA0186569F4FFC013491D3
:100630004A575F4FFA019491992309F440C022234D
:1006400031F1233021F4809180008F7705C0243070
:1006500031F4809180008F7D8093800018C021301C
:1006600019F484B58F7704C0223021F484B58F7DCE
:1006700084BD0DC0263021F48091B0008F7705C075
:10068000273029F48091B0008F7D8093B000E92F4E
:10069000F0E0EE0FFF1FEE58FF4FA591B4916623D7
:1006A00041F49FB7F8948C91309583238C939FBF2E
:1006B00008959FB7F8948C91832B8C939FBF0895D6
:1006C0001F920F920FB60F9211242F933F934F93C7
:1006D0005F936F937F938F939F93AF93BF93EF93AA
:1006E000FF934091C600E091B701F091B801CF01AE
:1006F000019660E870E00E9410059C018091B901AC
:100700009091BA012817390739F0E95CFE4F408310
:100710003093B8012093B701FF91EF91BF91AF9152
:100720009F918F917F916F915F914F913F912F9109
:100730000F900FBE0F901F901895DC011296ED914F
:10074000FC911397E058FF4F8191919180589F4FF2
:1007500020813181821B930B60E870E00E941005BC
:100760000895DC011296ED91FC911397EE57FF4F1F
:100770002081318192918291E058F0408217930755
:1007800019F42FEF3FEF05C0E20FF31F8081282FF0
:1007900030E0C9010895CF93DF93DC011296ED910B
:1007A000FC911397EF01CE57DF4F48815981E058F4
:1007B000FF4F80819181E058F0408417950719F42C
:1007C0002FEF3FEF0CC0E40FF51F2081CA01019607
:1007D00060E870E00E9410059983888330E0C901C9
:1007E000DF91CF910895DC011296ED91FC91139762
:1007F000EE57FF4F80819181929382930895FC017F
:10080000A085B18521898C9190E0022E02C095953A
:1008100087950A94E2F780FFF6CF0484F585E02DF2
:100820006083089584E091E09093BC018093BB01C4
:1008300087E391E09093BE018093BD0185EC90E049
:100840009093C0018093BF0184EC90E09093C2012B
:100850008093C10180EC90E09093C4018093C30128
:1008600081EC90E09093C6018093C50186EC90E006
:100870009093C8018093C70184E08093C90183E00D
:100880008093CA0187E08093CB0185E08093CC01FF
:1008900081E08093CD0108950F931F93CF93DF9351
:1008A0008C01EB0109C02196D801ED91FC910190DA
:1008B000F081E02DC801099568816623A1F7DF91D9
:1008C000CF911F910F910895EF92FF920F931F9375
:1008D000CF93DF938C017B01EA010CC0D7016D91AE
:1008E0007D01D801ED91FC910190F081E02DC801CE
:1008F00009952197209791F7DF91CF911F910F9143
:10090000FF90EF900895813041F0813018F08230EF
:10091000D1F409C010926E00089580916F008D7F10
:1009200080936F000895809170008D7F8093700098
:1009300081E08093B0008091B100887F84608093D3
:10094000B1001092B30008951F920F920FB60F924C
:1009500011242F933F934F935F936F937F938F93C4
:100960009F93AF93BF93EF93FF938091CE019091AC
:10097000CF01A091D001B091D1010097A105B1059F
:1009800051F1E091D201F091D30180819091D40195
:10099000892780838091CE019091CF01A091D001D1
:1009A000B091D101181619061A061B060CF5809194
:1009B000CE019091CF01A091D001B091D1010197CA
:1009C000A109B1098093CE019093CF01A093D001EA
:1009D000B093D1010DC082E00E948304E091D20166
:1009E000F091D30190818091D401809589238083F7
:1009F000FF91EF91BF91AF919F918F917F916F91F7
:100A00005F914F913F912F910F900FBE0F901F90CC
:100A100018950E9453020E944F010E940401FDCFCD
:100A200097FB092E07260AD077FD04D00CD006D0FC
:100A300000201AF4709561957F4F0895F6F7909510
:100A400081959F4F0895AA1BBB1B51E107C0AA1FA8
:100A5000BB1FA617B70710F0A61BB70B881F991F5F
:100A60005A95A9F780959095BC01CD010895EE0F98
:0E0A7000FF1F0590F491E02D0994F894FFCF3C
:100A7E0000000000FF034C0464049D03CB03F3034A
:020A8E00B103B2
:00000001FF
